{
  "_format": "hh-sol-artifact-1",
  "contractName": "AgentNFT",
  "sourceName": "contracts/AgentNFT.sol",
  "abi": [
    {
      "inputs": [],
      "stateMutability": "nonpayable",
      "type": "constructor"
    },
    {
      "anonymous": false,
      "inputs": [
        {
          "indexed": true,
          "internalType": "uint256",
          "name": "tokenId",
          "type": "uint256"
        },
        {
          "indexed": false,
          "internalType": "uint256",
          "name": "newLevel",
          "type": "uint256"
        },
        {
          "indexed": false,
          "internalType": "string",
          "name": "newTrait",
          "type": "string"
        }
      ],
      "name": "AgentEvolved",
      "type": "event"
    },
    {
      "anonymous": false,
      "inputs": [
        {
          "indexed": true,
          "internalType": "uint256",
          "name": "tokenId",
          "type": "uint256"
        },
        {
          "indexed": true,
          "internalType": "address",
          "name": "owner",
          "type": "address"
        },
        {
          "indexed": false,
          "internalType": "uint8",
          "name": "agentType",
          "type": "uint8"
        },
        {
          "indexed": false,
          "internalType": "string",
          "name": "specialization",
          "type": "string"
        }
      ],
      "name": "AgentMinted",
      "type": "event"
    },
    {
      "anonymous": false,
      "inputs": [
        {
          "indexed": true,
          "internalType": "address",
          "name": "owner",
          "type": "address"
        },
        {
          "indexed": true,
          "internalType": "address",
          "name": "approved",
          "type": "address"
        },
        {
          "indexed": true,
          "internalType": "uint256",
          "name": "tokenId",
          "type": "uint256"
        }
      ],
      "name": "Approval",
      "type": "event"
    },
    {
      "anonymous": false,
      "inputs": [
        {
          "indexed": true,
          "internalType": "address",
          "name": "owner",
          "type": "address"
        },
        {
          "indexed": true,
          "internalType": "address",
          "name": "operator",
          "type": "address"
        },
        {
          "indexed": false,
          "internalType": "bool",
          "name": "approved",
          "type": "bool"
        }
      ],
      "name": "ApprovalForAll",
      "type": "event"
    },
    {
      "anonymous": false,
      "inputs": [
        {
          "indexed": false,
          "internalType": "uint256",
          "name": "_fromTokenId",
          "type": "uint256"
        },
        {
          "indexed": false,
          "internalType": "uint256",
          "name": "_toTokenId",
          "type": "uint256"
        }
      ],
      "name": "BatchMetadataUpdate",
      "type": "event"
    },
    {
      "anonymous": false,
      "inputs": [
        {
          "indexed": true,
          "internalType": "uint256",
          "name": "tokenId",
          "type": "uint256"
        },
        {
          "indexed": false,
          "internalType": "string",
          "name": "field",
          "type": "string"
        }
      ],
      "name": "DNAUpdated",
      "type": "event"
    },
    {
      "anonymous": false,
      "inputs": [
        {
          "indexed": false,
          "internalType": "uint256",
          "name": "_tokenId",
          "type": "uint256"
        }
      ],
      "name": "MetadataUpdate",
      "type": "event"
    },
    {
      "anonymous": false,
      "inputs": [
        {
          "indexed": true,
          "internalType": "bytes32",
          "name": "role",
          "type": "bytes32"
        },
        {
          "indexed": true,
          "internalType": "bytes32",
          "name": "previousAdminRole",
          "type": "bytes32"
        },
        {
          "indexed": true,
          "internalType": "bytes32",
          "name": "newAdminRole",
          "type": "bytes32"
        }
      ],
      "name": "RoleAdminChanged",
      "type": "event"
    },
    {
      "anonymous": false,
      "inputs": [
        {
          "indexed": true,
          "internalType": "bytes32",
          "name": "role",
          "type": "bytes32"
        },
        {
          "indexed": true,
          "internalType": "address",
          "name": "account",
          "type": "address"
        },
        {
          "indexed": true,
          "internalType": "address",
          "name": "sender",
          "type": "address"
        }
      ],
      "name": "RoleGranted",
      "type": "event"
    },
    {
      "anonymous": false,
      "inputs": [
        {
          "indexed": true,
          "internalType": "bytes32",
          "name": "role",
          "type": "bytes32"
        },
        {
          "indexed": true,
          "internalType": "address",
          "name": "account",
          "type": "address"
        },
        {
          "indexed": true,
          "internalType": "address",
          "name": "sender",
          "type": "address"
        }
      ],
      "name": "RoleRevoked",
      "type": "event"
    },
    {
      "anonymous": false,
      "inputs": [
        {
          "indexed": true,
          "internalType": "uint256",
          "name": "tokenId",
          "type": "uint256"
        },
        {
          "indexed": false,
          "internalType": "address",
          "name": "tbaAddress",
          "type": "address"
        }
      ],
      "name": "TBACreated",
      "type": "event"
    },
    {
      "anonymous": false,
      "inputs": [
        {
          "indexed": true,
          "internalType": "address",
          "name": "from",
          "type": "address"
        },
        {
          "indexed": true,
          "internalType": "address",
          "name": "to",
          "type": "address"
        },
        {
          "indexed": true,
          "internalType": "uint256",
          "name": "tokenId",
          "type": "uint256"
        }
      ],
      "name": "Transfer",
      "type": "event"
    },
    {
      "inputs": [],
      "name": "CONTENT_AGENT",
      "outputs": [
        {
          "internalType": "uint8",
          "name": "",
          "type": "uint8"
        }
      ],
      "stateMutability": "view",
      "type": "function"
    },
    {
      "inputs": [],
      "name": "DEFAULT_ADMIN_ROLE",
      "outputs": [
        {
          "internalType": "bytes32",
          "name": "",
          "type": "bytes32"
        }
      ],
      "stateMutability": "view",
      "type": "function"
    },
    {
      "inputs": [],
      "name": "MINTER_ROLE",
      "outputs": [
        {
          "internalType": "bytes32",
          "name": "",
          "type": "bytes32"
        }
      ],
      "stateMutability": "view",
      "type": "function"
    },
    {
      "inputs": [],
      "name": "TRADING_AGENT",
      "outputs": [
        {
          "internalType": "uint8",
          "name": "",
          "type": "uint8"
        }
      ],
      "stateMutability": "view",
      "type": "function"
    },
    {
      "inputs": [],
      "name": "UPDATER_ROLE",
      "outputs": [
        {
          "internalType": "bytes32",
          "name": "",
          "type": "bytes32"
        }
      ],
      "stateMutability": "view",
      "type": "function"
    },
    {
      "inputs": [
        {
          "internalType": "uint256",
          "name": "",
          "type": "uint256"
        }
      ],
      "name": "agentDNA",
      "outputs": [
        {
          "internalType": "uint8",
          "name": "agentType",
          "type": "uint8"
        },
        {
          "internalType": "string",
          "name": "specialization",
          "type": "string"
        },
        {
          "internalType": "uint256",
          "name": "level",
          "type": "uint256"
        },
        {
          "internalType": "uint256",
          "name": "totalEarnings",
          "type": "uint256"
        },
        {
          "internalType": "uint256",
          "name": "jobsCompleted",
          "type": "uint256"
        },
        {
          "internalType": "uint256",
          "name": "reputationScore",
          "type": "uint256"
        },
        {
          "internalType": "uint256",
          "name": "mintedAt",
          "type": "uint256"
        },
        {
          "internalType": "address",
          "name": "tbaWallet",
          "type": "address"
        }
      ],
      "stateMutability": "view",
      "type": "function"
    },
    {
      "inputs": [
        {
          "internalType": "address",
          "name": "to",
          "type": "address"
        },
        {
          "internalType": "uint256",
          "name": "tokenId",
          "type": "uint256"
        }
      ],
      "name": "approve",
      "outputs": [],
      "stateMutability": "nonpayable",
      "type": "function"
    },
    {
      "inputs": [
        {
          "internalType": "address",
          "name": "owner",
          "type": "address"
        }
      ],
      "name": "balanceOf",
      "outputs": [
        {
          "internalType": "uint256",
          "name": "",
          "type": "uint256"
        }
      ],
      "stateMutability": "view",
      "type": "function"
    },
    {
      "inputs": [],
      "name": "erc6551Implementation",
      "outputs": [
        {
          "internalType": "address",
          "name": "",
          "type": "address"
        }
      ],
      "stateMutability": "view",
      "type": "function"
    },
    {
      "inputs": [],
      "name": "erc6551Registry",
      "outputs": [
        {
          "internalType": "address",
          "name": "",
          "type": "address"
        }
      ],
      "stateMutability": "view",
      "type": "function"
    },
    {
      "inputs": [
        {
          "internalType": "uint256",
          "name": "tokenId",
          "type": "uint256"
        },
        {
          "internalType": "uint256",
          "name": "newLevel",
          "type": "uint256"
        },
        {
          "internalType": "string",
          "name": "newTrait",
          "type": "string"
        },
        {
          "internalType": "string",
          "name": "newMetadataURI",
          "type": "string"
        }
      ],
      "name": "evolveAgent",
      "outputs": [],
      "stateMutability": "nonpayable",
      "type": "function"
    },
    {
      "inputs": [
        {
          "internalType": "uint256",
          "name": "tokenId",
          "type": "uint256"
        }
      ],
      "name": "getAgentDNA",
      "outputs": [
        {
          "components": [
            {
              "internalType": "uint8",
              "name": "agentType",
              "type": "uint8"
            },
            {
              "internalType": "string",
              "name": "specialization",
              "type": "string"
            },
            {
              "internalType": "uint256[5]",
              "name": "skillScores",
              "type": "uint256[5]"
            },
            {
              "internalType": "uint256",
              "name": "level",
              "type": "uint256"
            },
            {
              "internalType": "uint256",
              "name": "totalEarnings",
              "type": "uint256"
            },
            {
              "internalType": "uint256",
              "name": "jobsCompleted",
              "type": "uint256"
            },
            {
              "internalType": "uint256",
              "name": "reputationScore",
              "type": "uint256"
            },
            {
              "internalType": "string[]",
              "name": "traits",
              "type": "string[]"
            },
            {
              "internalType": "uint256",
              "name": "mintedAt",
              "type": "uint256"
            },
            {
              "internalType": "address",
              "name": "tbaWallet",
              "type": "address"
            }
          ],
          "internalType": "struct AgentNFT.AgentDNA",
          "name": "",
          "type": "tuple"
        }
      ],
      "stateMutability": "view",
      "type": "function"
    },
    {
      "inputs": [
        {
          "internalType": "address",
          "name": "owner",
          "type": "address"
        }
      ],
      "name": "getAgentsByOwner",
      "outputs": [
        {
          "internalType": "uint256[]",
          "name": "",
          "type": "uint256[]"
        }
      ],
      "stateMutability": "view",
      "type": "function"
    },
    {
      "inputs": [
        {
          "internalType": "uint256",
          "name": "tokenId",
          "type": "uint256"
        }
      ],
      "name": "getApproved",
      "outputs": [
        {
          "internalType": "address",
          "name": "",
          "type": "address"
        }
      ],
      "stateMutability": "view",
      "type": "function"
    },
    {
      "inputs": [
        {
          "internalType": "bytes32",
          "name": "role",
          "type": "bytes32"
        }
      ],
      "name": "getRoleAdmin",
      "outputs": [
        {
          "internalType": "bytes32",
          "name": "",
          "type": "bytes32"
        }
      ],
      "stateMutability": "view",
      "type": "function"
    },
    {
      "inputs": [
        {
          "internalType": "bytes32",
          "name": "role",
          "type": "bytes32"
        },
        {
          "internalType": "address",
          "name": "account",
          "type": "address"
        }
      ],
      "name": "grantRole",
      "outputs": [],
      "stateMutability": "nonpayable",
      "type": "function"
    },
    {
      "inputs": [
        {
          "internalType": "bytes32",
          "name": "role",
          "type": "bytes32"
        },
        {
          "internalType": "address",
          "name": "account",
          "type": "address"
        }
      ],
      "name": "hasRole",
      "outputs": [
        {
          "internalType": "bool",
          "name": "",
          "type": "bool"
        }
      ],
      "stateMutability": "view",
      "type": "function"
    },
    {
      "inputs": [
        {
          "internalType": "address",
          "name": "owner",
          "type": "address"
        },
        {
          "internalType": "address",
          "name": "operator",
          "type": "address"
        }
      ],
      "name": "isApprovedForAll",
      "outputs": [
        {
          "internalType": "bool",
          "name": "",
          "type": "bool"
        }
      ],
      "stateMutability": "view",
      "type": "function"
    },
    {
      "inputs": [
        {
          "internalType": "address",
          "name": "to",
          "type": "address"
        },
        {
          "internalType": "uint8",
          "name": "_agentType",
          "type": "uint8"
        },
        {
          "internalType": "string",
          "name": "_specialization",
          "type": "string"
        },
        {
          "internalType": "uint256[5]",
          "name": "_initialSkills",
          "type": "uint256[5]"
        },
        {
          "internalType": "string",
          "name": "_metadataURI",
          "type": "string"
        }
      ],
      "name": "mintAgent",
      "outputs": [
        {
          "internalType": "uint256",
          "name": "",
          "type": "uint256"
        }
      ],
      "stateMutability": "nonpayable",
      "type": "function"
    },
    {
      "inputs": [],
      "name": "mintFee",
      "outputs": [
        {
          "internalType": "uint256",
          "name": "",
          "type": "uint256"
        }
      ],
      "stateMutability": "view",
      "type": "function"
    },
    {
      "inputs": [],
      "name": "name",
      "outputs": [
        {
          "internalType": "string",
          "name": "",
          "type": "string"
        }
      ],
      "stateMutability": "view",
      "type": "function"
    },
    {
      "inputs": [
        {
          "internalType": "uint256",
          "name": "tokenId",
          "type": "uint256"
        }
      ],
      "name": "ownerOf",
      "outputs": [
        {
          "internalType": "address",
          "name": "",
          "type": "address"
        }
      ],
      "stateMutability": "view",
      "type": "function"
    },
    {
      "inputs": [
        {
          "internalType": "uint256",
          "name": "tokenId",
          "type": "uint256"
        },
        {
          "internalType": "uint256",
          "name": "earningsWei",
          "type": "uint256"
        }
      ],
      "name": "recordJobCompleted",
      "outputs": [],
      "stateMutability": "nonpayable",
      "type": "function"
    },
    {
      "inputs": [
        {
          "internalType": "bytes32",
          "name": "role",
          "type": "bytes32"
        },
        {
          "internalType": "address",
          "name": "account",
          "type": "address"
        }
      ],
      "name": "renounceRole",
      "outputs": [],
      "stateMutability": "nonpayable",
      "type": "function"
    },
    {
      "inputs": [
        {
          "internalType": "bytes32",
          "name": "role",
          "type": "bytes32"
        },
        {
          "internalType": "address",
          "name": "account",
          "type": "address"
        }
      ],
      "name": "revokeRole",
      "outputs": [],
      "stateMutability": "nonpayable",
      "type": "function"
    },
    {
      "inputs": [
        {
          "internalType": "address",
          "name": "from",
          "type": "address"
        },
        {
          "internalType": "address",
          "name": "to",
          "type": "address"
        },
        {
          "internalType": "uint256",
          "name": "tokenId",
          "type": "uint256"
        }
      ],
      "name": "safeTransferFrom",
      "outputs": [],
      "stateMutability": "nonpayable",
      "type": "function"
    },
    {
      "inputs": [
        {
          "internalType": "address",
          "name": "from",
          "type": "address"
        },
        {
          "internalType": "address",
          "name": "to",
          "type": "address"
        },
        {
          "internalType": "uint256",
          "name": "tokenId",
          "type": "uint256"
        },
        {
          "internalType": "bytes",
          "name": "data",
          "type": "bytes"
        }
      ],
      "name": "safeTransferFrom",
      "outputs": [],
      "stateMutability": "nonpayable",
      "type": "function"
    },
    {
      "inputs": [
        {
          "internalType": "address",
          "name": "operator",
          "type": "address"
        },
        {
          "internalType": "bool",
          "name": "approved",
          "type": "bool"
        }
      ],
      "name": "setApprovalForAll",
      "outputs": [],
      "stateMutability": "nonpayable",
      "type": "function"
    },
    {
      "inputs": [
        {
          "internalType": "address",
          "name": "_registry",
          "type": "address"
        },
        {
          "internalType": "address",
          "name": "_implementation",
          "type": "address"
        }
      ],
      "name": "setERC6551Config",
      "outputs": [],
      "stateMutability": "nonpayable",
      "type": "function"
    },
    {
      "inputs": [
        {
          "internalType": "uint256",
          "name": "tokenId",
          "type": "uint256"
        },
        {
          "internalType": "address",
          "name": "_tbaWallet",
          "type": "address"
        }
      ],
      "name": "setTBAWallet",
      "outputs": [],
      "stateMutability": "nonpayable",
      "type": "function"
    },
    {
      "inputs": [
        {
          "internalType": "bytes4",
          "name": "interfaceId",
          "type": "bytes4"
        }
      ],
      "name": "supportsInterface",
      "outputs": [
        {
          "internalType": "bool",
          "name": "",
          "type": "bool"
        }
      ],
      "stateMutability": "view",
      "type": "function"
    },
    {
      "inputs": [],
      "name": "symbol",
      "outputs": [
        {
          "internalType": "string",
          "name": "",
          "type": "string"
        }
      ],
      "stateMutability": "view",
      "type": "function"
    },
    {
      "inputs": [
        {
          "internalType": "uint256",
          "name": "index",
          "type": "uint256"
        }
      ],
      "name": "tokenByIndex",
      "outputs": [
        {
          "internalType": "uint256",
          "name": "",
          "type": "uint256"
        }
      ],
      "stateMutability": "view",
      "type": "function"
    },
    {
      "inputs": [
        {
          "internalType": "address",
          "name": "owner",
          "type": "address"
        },
        {
          "internalType": "uint256",
          "name": "index",
          "type": "uint256"
        }
      ],
      "name": "tokenOfOwnerByIndex",
      "outputs": [
        {
          "internalType": "uint256",
          "name": "",
          "type": "uint256"
        }
      ],
      "stateMutability": "view",
      "type": "function"
    },
    {
      "inputs": [
        {
          "internalType": "uint256",
          "name": "tokenId",
          "type": "uint256"
        }
      ],
      "name": "tokenURI",
      "outputs": [
        {
          "internalType": "string",
          "name": "",
          "type": "string"
        }
      ],
      "stateMutability": "view",
      "type": "function"
    },
    {
      "inputs": [],
      "name": "totalAgents",
      "outputs": [
        {
          "internalType": "uint256",
          "name": "",
          "type": "uint256"
        }
      ],
      "stateMutability": "view",
      "type": "function"
    },
    {
      "inputs": [],
      "name": "totalSupply",
      "outputs": [
        {
          "internalType": "uint256",
          "name": "",
          "type": "uint256"
        }
      ],
      "stateMutability": "view",
      "type": "function"
    },
    {
      "inputs": [
        {
          "internalType": "address",
          "name": "from",
          "type": "address"
        },
        {
          "internalType": "address",
          "name": "to",
          "type": "address"
        },
        {
          "internalType": "uint256",
          "name": "tokenId",
          "type": "uint256"
        }
      ],
      "name": "transferFrom",
      "outputs": [],
      "stateMutability": "nonpayable",
      "type": "function"
    },
    {
      "inputs": [
        {
          "internalType": "uint256",
          "name": "tokenId",
          "type": "uint256"
        },
        {
          "internalType": "uint256",
          "name": "newScore",
          "type": "uint256"
        }
      ],
      "name": "updateReputationScore",
      "outputs": [],
      "stateMutability": "nonpayable",
      "type": "function"
    },
    {
      "inputs": [
        {
          "internalType": "uint256",
          "name": "tokenId",
          "type": "uint256"
        },
        {
          "internalType": "uint256[5]",
          "name": "newScores",
          "type": "uint256[5]"
        }
      ],
      "name": "updateSkillScores",
      "outputs": [],
      "stateMutability": "nonpayable",
      "type": "function"
    }
  ],
  "bytecode": "0x6080604052662386f26fc100006010553480156200001c57600080fd5b50604080518082018252601081526f1059d95b9d119bdc99d9481059d95b9d60821b6020808301918252835180850190945260058452641051d1539560da1b90840152815191929162000072916000916200019d565b508051620000889060019060208401906200019d565b506200009a91506000905033620000f8565b620000c67f9f2df0fed2c77648de5860a4cc508cd0818c85b8b8a1ab4ceeef8d981c8956a633620000f8565b620000f27f73e573f9566d61418a34d5de3ff49360f9c51fec37f7486551670290f6285dab33620000f8565b62000280565b6000828152600b602090815260408083206001600160a01b038516845290915290205460ff1662000199576000828152600b602090815260408083206001600160a01b03851684529091529020805460ff19166001179055620001583390565b6001600160a01b0316816001600160a01b0316837f2f8788117e7eff1d82e926ec794901d17c78024a50270940304540a733656f0d60405160405180910390a45b5050565b828054620001ab9062000243565b90600052602060002090601f016020900481019282620001cf57600085556200021a565b82601f10620001ea57805160ff19168380011785556200021a565b828001600101855582156200021a579182015b828111156200021a578251825591602001919060010190620001fd565b50620002289291506200022c565b5090565b5b808211156200022857600081556001016200022d565b600181811c908216806200025857607f821691505b602082108114156200027a57634e487b7160e01b600052602260045260246000fd5b50919050565b6133d380620002906000396000f3fe608060405234801561001057600080fd5b50600436106102485760003560e01c806357b6ba181161013b578063a217fddf116100b8578063c87b56dd1161007c578063c87b56dd1461052b578063d53913931461053e578063d547741f14610565578063e985e9c514610578578063fdf488f7146105b457600080fd5b8063a217fddf146104e2578063a22cb465146104ea578063b3dd12a2146104fd578063b88d4fde14610510578063c50537121461052357600080fd5b806370a08231116100ff57806370a082311461048e57806391d14854146104a1578063938ab433146104b457806395c9422f146104c757806395d89b41146104da57600080fd5b806357b6ba18146104335780635b1b180d1461044d5780636352211e14610460578063676a700a146104735780636c78aa5c1461048657600080fd5b806323b872dd116101c957806336568abe1161018d57806336568abe146103be57806342842e0e146103d1578063460499f6146103e457806347e633801461040b5780634f6ccce71461042057600080fd5b806323b872dd14610342578063248a9ca3146103555780632f2ff15d146103785780632f745c591461038b5780633576d7c91461039e57600080fd5b806313966db51161021057806313966db5146102dd57806318160ddd146102f45780631ab6f888146102fc5780631eb8e5491461031c5780631f5f4ea21461032f57600080fd5b806301ffc9a71461024d578063056d5afe1461027557806306fdde03146102a0578063081812fc146102b5578063095ea7b3146102c8575b600080fd5b61026061025b3660046129b6565b6105c7565b60405190151581526020015b60405180910390f35b600e54610288906001600160a01b031681565b6040516001600160a01b03909116815260200161026c565b6102a86105d8565b60405161026c9190612a2b565b6102886102c3366004612a3e565b61066a565b6102db6102d6366004612a73565b610691565b005b6102e660105481565b60405190815260200161026c565b6008546102e6565b61030f61030a366004612a9d565b6107ac565b60405161026c9190612ab8565b6102db61032a366004612afc565b61084e565b6102db61033d366004612b1e565b610936565b6102db610350366004612b51565b610a08565b6102e6610363366004612a3e565b6000908152600b602052604090206001015490565b6102db610386366004612b8d565b610a39565b6102e6610399366004612a73565b610a5e565b6103b16103ac366004612a3e565b610af4565b60405161026c9190612c25565b6102db6103cc366004612b8d565b610d38565b6102db6103df366004612b51565b610db6565b6103f76103f2366004612a3e565b610dd1565b60405161026c989796959493929190612ce0565b6102e660008051602061337e83398151915281565b6102e661042e366004612a3e565b610eaa565b61043b600181565b60405160ff909116815260200161026c565b6102e661045b366004612e53565b610f3d565b61028861046e366004612a3e565b6111b6565b6102db610481366004612ef4565b611216565b61043b600081565b6102e661049c366004612a9d565b61131c565b6102606104af366004612b8d565b6113a2565b6102db6104c2366004612f6b565b6113cd565b6102db6104d5366004612b8d565b611476565b6102a861155e565b6102e6600081565b6102db6104f8366004612f8f565b61156d565b600f54610288906001600160a01b031681565b6102db61051e366004612fcb565b611578565b600c546102e6565b6102a8610539366004612a3e565b6115b0565b6102e67f9f2df0fed2c77648de5860a4cc508cd0818c85b8b8a1ab4ceeef8d981c8956a681565b6102db610573366004612b8d565b6115bb565b610260610586366004612b1e565b6001600160a01b03918216600090815260056020908152604080832093909416825291909152205460ff1690565b6102db6105c2366004612afc565b6115e0565b60006105d2826116cc565b92915050565b6060600080546105e79061303b565b80601f01602080910402602001604051908101604052809291908181526020018280546106139061303b565b80156106605780601f1061063557610100808354040283529160200191610660565b820191906000526020600020905b81548152906001019060200180831161064357829003601f168201915b5050505050905090565b6000610675826116f1565b506000908152600460205260409020546001600160a01b031690565b600061069c826111b6565b9050806001600160a01b0316836001600160a01b0316141561070f5760405162461bcd60e51b815260206004820152602160248201527f4552433732313a20617070726f76616c20746f2063757272656e74206f776e656044820152603960f91b60648201526084015b60405180910390fd5b336001600160a01b038216148061072b575061072b8133610586565b61079d5760405162461bcd60e51b815260206004820152603d60248201527f4552433732313a20617070726f76652063616c6c6572206973206e6f7420746f60448201527f6b656e206f776e6572206f7220617070726f76656420666f7220616c6c0000006064820152608401610706565b6107a78383611744565b505050565b606060006107b98361131c565b905060008167ffffffffffffffff8111156107d6576107d6612d39565b6040519080825280602002602001820160405280156107ff578160200160208202803683370190505b50905060005b82811015610846576108178582610a5e565b82828151811061082957610829613076565b60209081029190910101528061083e816130a2565b915050610805565b509392505050565b60008051602061337e833981519152610866816117b2565b61086f836117bc565b61088b5760405162461bcd60e51b8152600401610706906130bd565b6000838152600d602052604081206009018054600192906108ad9084906130eb565b90915550506000838152600d6020526040812060080180548492906108d39084906130eb565b92505081905550827f83e5c587a050e90e78d173dbbc8838bcf3555b983e036bfa7db1ede33ea3ebc0604051610929906020808252600c908201526b1a9bd890dbdb5c1b195d195960a21b604082015260600190565b60405180910390a2505050565b6000610941816117b2565b6001600160a01b03831661098a5760405162461bcd60e51b815260206004820152601060248201526f496e76616c696420726567697374727960801b6044820152606401610706565b6001600160a01b0382166109d95760405162461bcd60e51b815260206004820152601660248201527524b73b30b634b21034b6b83632b6b2b73a30ba34b7b760511b6044820152606401610706565b50600e80546001600160a01b039384166001600160a01b031991821617909155600f8054929093169116179055565b610a1233826117d9565b610a2e5760405162461bcd60e51b815260040161070690613103565b6107a7838383611858565b6000828152600b6020526040902060010154610a54816117b2565b6107a783836119c9565b6000610a698361131c565b8210610acb5760405162461bcd60e51b815260206004820152602b60248201527f455243373231456e756d657261626c653a206f776e657220696e646578206f7560448201526a74206f6620626f756e647360a81b6064820152608401610706565b506001600160a01b03919091166000908152600660209081526040808320938352929052205490565b610afc6127ab565b610b05826117bc565b610b215760405162461bcd60e51b8152600401610706906130bd565b6000828152600d602090815260409182902082516101408101909352805460ff1683526001810180549192840191610b589061303b565b80601f0160208091040260200160405190810160405280929190818152602001828054610b849061303b565b8015610bd15780601f10610ba657610100808354040283529160200191610bd1565b820191906000526020600020905b815481529060010190602001808311610bb457829003601f168201915b50505091835250506040805160a081019182905260209092019190600284019060059082845b815481526020019060010190808311610bf75750505050508152602001600782015481526020016008820154815260200160098201548152602001600a8201548152602001600b8201805480602002602001604051908101604052809291908181526020016000905b82821015610d0c578382906000526020600020018054610c7f9061303b565b80601f0160208091040260200160405190810160405280929190818152602001828054610cab9061303b565b8015610cf85780601f10610ccd57610100808354040283529160200191610cf8565b820191906000526020600020905b815481529060010190602001808311610cdb57829003601f168201915b505050505081526020019060010190610c60565b50505090825250600c8201546020820152600d909101546001600160a01b031660409091015292915050565b6001600160a01b0381163314610da85760405162461bcd60e51b815260206004820152602f60248201527f416363657373436f6e74726f6c3a2063616e206f6e6c792072656e6f756e636560448201526e103937b632b9903337b91039b2b63360891b6064820152608401610706565b610db28282611a4f565b5050565b6107a783838360405180602001604052806000815250611578565b600d602052600090815260409020805460018201805460ff9092169291610df79061303b565b80601f0160208091040260200160405190810160405280929190818152602001828054610e239061303b565b8015610e705780601f10610e4557610100808354040283529160200191610e70565b820191906000526020600020905b815481529060010190602001808311610e5357829003601f168201915b505050600784015460088501546009860154600a870154600c880154600d909801549697939692955090935091906001600160a01b031688565b6000610eb560085490565b8210610f185760405162461bcd60e51b815260206004820152602c60248201527f455243373231456e756d657261626c653a20676c6f62616c20696e646578206f60448201526b7574206f6620626f756e647360a01b6064820152608401610706565b60088281548110610f2b57610f2b613076565b90600052602060002001549050919050565b60007f9f2df0fed2c77648de5860a4cc508cd0818c85b8b8a1ab4ceeef8d981c8956a6610f69816117b2565b6001600160a01b038716610faf5760405162461bcd60e51b815260206004820152600d60248201526c24b73b30b634b21037bbb732b960991b6044820152606401610706565b60018660ff161115610ff85760405162461bcd60e51b8152602060048201526012602482015271496e76616c6964206167656e74207479706560701b6044820152606401610706565b6001600c600082825461100b91906130eb565b9091555050600c5461101d8882611ab6565b6110278185611ad0565b6040805160008082526020820190925281611052565b606081526020019060019003908161103d5790505b50604080516101408101825260ff8b8116825260208083018c81528385018c905260016060850181905260006080860181905260a08601819052603260c087015260e08601889052426101008701526101208601819052898152600d8452959095208451815460ff19169416939093178355518051959650929491936110de939085019291019061280c565b5060408201516110f49060028301906005612890565b50606082015160078201556080820151600882015560a0820151600982015560c0820151600a82015560e0820151805161113891600b8401916020909101906128bd565b50610100820151600c82015561012090910151600d90910180546001600160a01b0319166001600160a01b03928316179055604051908a169083907ff39898eef50d73fdfac1fa926114af883af14c9ef07859d06a58403a683ba6b4906111a2908c908c90613150565b60405180910390a350979650505050505050565b6000818152600260205260408120546001600160a01b0316806105d25760405162461bcd60e51b8152602060048201526018602482015277115490cdcc8c4e881a5b9d985b1a59081d1bdad95b88125160421b6044820152606401610706565b60008051602061337e83398151915261122e816117b2565b611237856117bc565b6112535760405162461bcd60e51b8152600401610706906130bd565b60008351116112945760405162461bcd60e51b815260206004820152600d60248201526c125b9d985b1a59081d1c985a5d609a1b6044820152606401610706565b6000858152600d60209081526040822060078101879055600b0180546001810182559083529181902085516112d093919091019186019061280c565b506112db8583611ad0565b847f466f154d886a5710a75b24eaf90400725d02772a6960203e4d2eee6e9ff8f3bc858560405161130d92919061316c565b60405180910390a25050505050565b60006001600160a01b0382166113865760405162461bcd60e51b815260206004820152602960248201527f4552433732313a2061646472657373207a65726f206973206e6f7420612076616044820152683634b21037bbb732b960b91b6064820152608401610706565b506001600160a01b031660009081526003602052604090205490565b6000918252600b602090815260408084206001600160a01b0393909316845291905290205460ff1690565b60008051602061337e8339815191526113e5816117b2565b6113ee836117bc565b61140a5760405162461bcd60e51b8152600401610706906130bd565b6000838152600d6020526040902061142790600201836005612890565b50827f83e5c587a050e90e78d173dbbc8838bcf3555b983e036bfa7db1ede33ea3ebc0604051610929906020808252600b908201526a736b696c6c53636f72657360a81b604082015260600190565b60008051602061337e83398151915261148e816117b2565b611497836117bc565b6114b35760405162461bcd60e51b8152600401610706906130bd565b6001600160a01b0382166114fe5760405162461bcd60e51b8152602060048201526012602482015271125b9d985b1a5908151090481dd85b1b195d60721b6044820152606401610706565b6000838152600d602081815260409283902090910180546001600160a01b0319166001600160a01b038616908117909155915191825284917f07ae4d4bd43df6efbb2a2887e20f4d5cd4316ef9a2c1c71799b925de33c46e299101610929565b6060600180546105e79061303b565b610db2338383611b93565b61158233836117d9565b61159e5760405162461bcd60e51b815260040161070690613103565b6115aa84848484611c62565b50505050565b60606105d282611c95565b6000828152600b60205260409020600101546115d6816117b2565b6107a78383611a4f565b60008051602061337e8339815191526115f8816117b2565b611601836117bc565b61161d5760405162461bcd60e51b8152600401610706906130bd565b60648211156116645760405162461bcd60e51b8152602060048201526013602482015272053636f7265206d75737420626520302d31303606c1b6044820152606401610706565b6000838152600d602052604090819020600a018390555183907f83e5c587a050e90e78d173dbbc8838bcf3555b983e036bfa7db1ede33ea3ebc090610929906020808252600f908201526e72657075746174696f6e53636f726560881b604082015260600190565b60006001600160e01b03198216637965db0b60e01b14806105d257506105d282611d9e565b6116fa816117bc565b6117415760405162461bcd60e51b8152602060048201526018602482015277115490cdcc8c4e881a5b9d985b1a59081d1bdad95b88125160421b6044820152606401610706565b50565b600081815260046020526040902080546001600160a01b0319166001600160a01b0384169081179091558190611779826111b6565b6001600160a01b03167f8c5be1e5ebec7d5bd14f71427d1e84f3dd0314c0f7b2291e5b200ac8c7c3b92560405160405180910390a45050565b6117418133611dc3565b6000908152600260205260409020546001600160a01b0316151590565b6000806117e5836111b6565b9050806001600160a01b0316846001600160a01b0316148061182c57506001600160a01b0380821660009081526005602090815260408083209388168352929052205460ff165b806118505750836001600160a01b03166118458461066a565b6001600160a01b0316145b949350505050565b826001600160a01b031661186b826111b6565b6001600160a01b0316146118915760405162461bcd60e51b815260040161070690613185565b6001600160a01b0382166118f35760405162461bcd60e51b8152602060048201526024808201527f4552433732313a207472616e7366657220746f20746865207a65726f206164646044820152637265737360e01b6064820152608401610706565b6119008383836001611e1c565b826001600160a01b0316611913826111b6565b6001600160a01b0316146119395760405162461bcd60e51b815260040161070690613185565b600081815260046020908152604080832080546001600160a01b03199081169091556001600160a01b0387811680865260038552838620805460001901905590871680865283862080546001019055868652600290945282852080549092168417909155905184937fddf252ad1be2c89b69c2b068fc378daa952ba7f163c4a11628f55a4df523b3ef91a4505050565b6119d382826113a2565b610db2576000828152600b602090815260408083206001600160a01b03851684529091529020805460ff19166001179055611a0b3390565b6001600160a01b0316816001600160a01b0316837f2f8788117e7eff1d82e926ec794901d17c78024a50270940304540a733656f0d60405160405180910390a45050565b611a5982826113a2565b15610db2576000828152600b602090815260408083206001600160a01b0385168085529252808320805460ff1916905551339285917ff6391f5c32d9c69d2a47ea670b442974b53935d1edc7fd64eb21e047a839171b9190a45050565b610db2828260405180602001604052806000815250611e28565b611ad9826117bc565b611b3c5760405162461bcd60e51b815260206004820152602e60248201527f45524337323155524953746f726167653a2055524920736574206f66206e6f6e60448201526d32bc34b9ba32b73a103a37b5b2b760911b6064820152608401610706565b6000828152600a602090815260409091208251611b5b9284019061280c565b506040518281527ff8e1a15aba9398e019f0b49df1a4fde98ee17ae345cb5f6b5e2c27f5033e8ce79060200160405180910390a15050565b816001600160a01b0316836001600160a01b03161415611bf55760405162461bcd60e51b815260206004820152601960248201527f4552433732313a20617070726f766520746f2063616c6c6572000000000000006044820152606401610706565b6001600160a01b03838116600081815260056020908152604080832094871680845294825291829020805460ff191686151590811790915591519182527f17307eab39ab6107e8899845ad3d59bd9653f200f220920489ca2b5937696c31910160405180910390a3505050565b611c6d848484611858565b611c7984848484611e5b565b6115aa5760405162461bcd60e51b8152600401610706906131ca565b6060611ca0826116f1565b6000828152600a602052604081208054611cb99061303b565b80601f0160208091040260200160405190810160405280929190818152602001828054611ce59061303b565b8015611d325780601f10611d0757610100808354040283529160200191611d32565b820191906000526020600020905b815481529060010190602001808311611d1557829003601f168201915b505050505090506000611d5060408051602081019091526000815290565b9050805160001415611d63575092915050565b815115611d95578082604051602001611d7d92919061321c565b60405160208183030381529060405292505050919050565b61185084611f68565b60006001600160e01b03198216632483248360e11b14806105d257506105d282611fdc565b611dcd82826113a2565b610db257611dda81612001565b611de5836020612013565b604051602001611df692919061324b565b60408051601f198184030181529082905262461bcd60e51b825261070691600401612a2b565b6115aa848484846121af565b611e3283836122e3565b611e3f6000848484611e5b565b6107a75760405162461bcd60e51b8152600401610706906131ca565b60006001600160a01b0384163b15611f5d57604051630a85bd0160e11b81526001600160a01b0385169063150b7a0290611e9f9033908990889088906004016132c0565b602060405180830381600087803b158015611eb957600080fd5b505af1925050508015611ee9575060408051601f3d908101601f19168201909252611ee6918101906132fd565b60015b611f43573d808015611f17576040519150601f19603f3d011682016040523d82523d6000602084013e611f1c565b606091505b508051611f3b5760405162461bcd60e51b8152600401610706906131ca565b805181602001fd5b6001600160e01b031916630a85bd0160e11b149050611850565b506001949350505050565b6060611f73826116f1565b6000611f8a60408051602081019091526000815290565b90506000815111611faa5760405180602001604052806000815250611fd5565b80611fb48461245e565b604051602001611fc592919061321c565b6040516020818303038152906040525b9392505050565b60006001600160e01b0319821663780e9d6360e01b14806105d257506105d2826124f3565b60606105d26001600160a01b03831660145b6060600061202283600261331a565b61202d9060026130eb565b67ffffffffffffffff81111561204557612045612d39565b6040519080825280601f01601f19166020018201604052801561206f576020820181803683370190505b509050600360fc1b8160008151811061208a5761208a613076565b60200101906001600160f81b031916908160001a905350600f60fb1b816001815181106120b9576120b9613076565b60200101906001600160f81b031916908160001a90535060006120dd84600261331a565b6120e89060016130eb565b90505b6001811115612160576f181899199a1a9b1b9c1cb0b131b232b360811b85600f166010811061211c5761211c613076565b1a60f81b82828151811061213257612132613076565b60200101906001600160f81b031916908160001a90535060049490941c9361215981613339565b90506120eb565b508315611fd55760405162461bcd60e51b815260206004820181905260248201527f537472696e67733a20686578206c656e67746820696e73756666696369656e746044820152606401610706565b600181111561221e5760405162461bcd60e51b815260206004820152603560248201527f455243373231456e756d657261626c653a20636f6e7365637574697665207472604482015274185b9cd9995c9cc81b9bdd081cdd5c1c1bdc9d1959605a1b6064820152608401610706565b816001600160a01b03851661227a5761227581600880546000838152600960205260408120829055600182018355919091527ff3f7a9fe364faab93b216da50a3214154f22a0a2b415b23a84c8169e8b636ee30155565b61229d565b836001600160a01b0316856001600160a01b03161461229d5761229d8582612543565b6001600160a01b0384166122b9576122b4816125e0565b6122dc565b846001600160a01b0316846001600160a01b0316146122dc576122dc848261268f565b5050505050565b6001600160a01b0382166123395760405162461bcd60e51b815260206004820181905260248201527f4552433732313a206d696e7420746f20746865207a65726f20616464726573736044820152606401610706565b612342816117bc565b1561238f5760405162461bcd60e51b815260206004820152601c60248201527f4552433732313a20746f6b656e20616c7265616479206d696e746564000000006044820152606401610706565b61239d600083836001611e1c565b6123a6816117bc565b156123f35760405162461bcd60e51b815260206004820152601c60248201527f4552433732313a20746f6b656e20616c7265616479206d696e746564000000006044820152606401610706565b6001600160a01b038216600081815260036020908152604080832080546001019055848352600290915280822080546001600160a01b0319168417905551839291907fddf252ad1be2c89b69c2b068fc378daa952ba7f163c4a11628f55a4df523b3ef908290a45050565b6060600061246b836126d3565b600101905060008167ffffffffffffffff81111561248b5761248b612d39565b6040519080825280601f01601f1916602001820160405280156124b5576020820181803683370190505b5090508181016020015b600019016f181899199a1a9b1b9c1cb0b131b232b360811b600a86061a8153600a85049450846124ee57610846565b6124bf565b60006001600160e01b031982166380ac58cd60e01b148061252457506001600160e01b03198216635b5e139f60e01b145b806105d257506301ffc9a760e01b6001600160e01b03198316146105d2565b600060016125508461131c565b61255a9190613350565b6000838152600760205260409020549091508082146125ad576001600160a01b03841660009081526006602090815260408083208584528252808320548484528184208190558352600790915290208190555b5060009182526007602090815260408084208490556001600160a01b039094168352600681528383209183525290812055565b6008546000906125f290600190613350565b6000838152600960205260408120546008805493945090928490811061261a5761261a613076565b90600052602060002001549050806008838154811061263b5761263b613076565b600091825260208083209091019290925582815260099091526040808220849055858252812055600880548061267357612673613367565b6001900381819060005260206000200160009055905550505050565b600061269a8361131c565b6001600160a01b039093166000908152600660209081526040808320868452825280832085905593825260079052919091209190915550565b60008072184f03e93ff9f4daa797ed6e38ed64bf6a1f0160401b83106127125772184f03e93ff9f4daa797ed6e38ed64bf6a1f0160401b830492506040015b6d04ee2d6d415b85acef8100000000831061273e576d04ee2d6d415b85acef8100000000830492506020015b662386f26fc10000831061275c57662386f26fc10000830492506010015b6305f5e1008310612774576305f5e100830492506008015b612710831061278857612710830492506004015b6064831061279a576064830492506002015b600a83106105d25760010192915050565b604080516101408101825260008152606060208201529081016127cc612916565b815260200160008152602001600081526020016000815260200160008152602001606081526020016000815260200160006001600160a01b031681525090565b8280546128189061303b565b90600052602060002090601f01602090048101928261283a5760008555612880565b82601f1061285357805160ff1916838001178555612880565b82800160010185558215612880579182015b82811115612880578251825591602001919060010190612865565b5061288c929150612934565b5090565b82600581019282156128805791602002820182811115612880578251825591602001919060010190612865565b82805482825590600052602060002090810192821561290a579160200282015b8281111561290a57825180516128fa91849160209091019061280c565b50916020019190600101906128dd565b5061288c929150612949565b6040518060a001604052806005906020820280368337509192915050565b5b8082111561288c5760008155600101612935565b8082111561288c57600061295d8282612966565b50600101612949565b5080546129729061303b565b6000825580601f10612982575050565b601f0160209004906000526020600020908101906117419190612934565b6001600160e01b03198116811461174157600080fd5b6000602082840312156129c857600080fd5b8135611fd5816129a0565b60005b838110156129ee5781810151838201526020016129d6565b838111156115aa5750506000910152565b60008151808452612a178160208601602086016129d3565b601f01601f19169290920160200192915050565b602081526000611fd560208301846129ff565b600060208284031215612a5057600080fd5b5035919050565b80356001600160a01b0381168114612a6e57600080fd5b919050565b60008060408385031215612a8657600080fd5b612a8f83612a57565b946020939093013593505050565b600060208284031215612aaf57600080fd5b611fd582612a57565b6020808252825182820181905260009190848201906040850190845b81811015612af057835183529284019291840191600101612ad4565b50909695505050505050565b60008060408385031215612b0f57600080fd5b50508035926020909101359150565b60008060408385031215612b3157600080fd5b612b3a83612a57565b9150612b4860208401612a57565b90509250929050565b600080600060608486031215612b6657600080fd5b612b6f84612a57565b9250612b7d60208501612a57565b9150604084013590509250925092565b60008060408385031215612ba057600080fd5b82359150612b4860208401612a57565b8060005b60058110156115aa578151845260209384019390910190600101612bb4565b6000815180845260208085019450848260051b860182860160005b85811015612c18578383038952612c068383516129ff565b98850198925090840190600101612bee565b5090979650505050505050565b60208152612c3960208201835160ff169052565b600060208301516101c0806040850152612c576101e08501836129ff565b91506040850151612c6b6060860182612bb0565b506060850151610100818187015260808701519150610120828188015260a088015161014088015260c088015161016088015260e08801519250601f1987860301610180880152612cbc8584612bd3565b918801516101a0880152909601516001600160a01b03169190940152509192915050565b600061010060ff8b168352806020840152612cfd8184018b6129ff565b604084019990995250506060810195909552608085019390935260a084019190915260c08301526001600160a01b031660e09091015292915050565b634e487b7160e01b600052604160045260246000fd5b600067ffffffffffffffff80841115612d6a57612d6a612d39565b604051601f8501601f19908116603f01168101908282118183101715612d9257612d92612d39565b81604052809350858152868686011115612dab57600080fd5b858560208301376000602087830101525050509392505050565b600082601f830112612dd657600080fd5b611fd583833560208501612d4f565b600082601f830112612df657600080fd5b60405160a0810181811067ffffffffffffffff82111715612e1957612e19612d39565b6040528060a0840185811115612e2e57600080fd5b845b81811015612e48578035835260209283019201612e30565b509195945050505050565b60008060008060006101208688031215612e6c57600080fd5b612e7586612a57565b9450602086013560ff81168114612e8b57600080fd5b9350604086013567ffffffffffffffff80821115612ea857600080fd5b612eb489838a01612dc5565b9450612ec38960608a01612de5565b9350610100880135915080821115612eda57600080fd5b50612ee788828901612dc5565b9150509295509295909350565b60008060008060808587031215612f0a57600080fd5b8435935060208501359250604085013567ffffffffffffffff80821115612f3057600080fd5b612f3c88838901612dc5565b93506060870135915080821115612f5257600080fd5b50612f5f87828801612dc5565b91505092959194509250565b60008060c08385031215612f7e57600080fd5b82359150612b488460208501612de5565b60008060408385031215612fa257600080fd5b612fab83612a57565b915060208301358015158114612fc057600080fd5b809150509250929050565b60008060008060808587031215612fe157600080fd5b612fea85612a57565b9350612ff860208601612a57565b925060408501359150606085013567ffffffffffffffff81111561301b57600080fd5b8501601f8101871361302c57600080fd5b612f5f87823560208401612d4f565b600181811c9082168061304f57607f821691505b6020821081141561307057634e487b7160e01b600052602260045260246000fd5b50919050565b634e487b7160e01b600052603260045260246000fd5b634e487b7160e01b600052601160045260246000fd5b60006000198214156130b6576130b661308c565b5060010190565b6020808252601490820152731059d95b9d08191bd95cc81b9bdd08195e1a5cdd60621b604082015260600190565b600082198211156130fe576130fe61308c565b500190565b6020808252602d908201527f4552433732313a2063616c6c6572206973206e6f7420746f6b656e206f776e6560408201526c1c881bdc88185c1c1c9bdd9959609a1b606082015260800190565b60ff8316815260406020820152600061185060408301846129ff565b82815260406020820152600061185060408301846129ff565b60208082526025908201527f4552433732313a207472616e736665722066726f6d20696e636f72726563742060408201526437bbb732b960d91b606082015260800190565b60208082526032908201527f4552433732313a207472616e7366657220746f206e6f6e20455243373231526560408201527131b2b4bb32b91034b6b83632b6b2b73a32b960711b606082015260800190565b6000835161322e8184602088016129d3565b8351908301906132428183602088016129d3565b01949350505050565b7f416363657373436f6e74726f6c3a206163636f756e74200000000000000000008152600083516132838160178501602088016129d3565b7001034b99036b4b9b9b4b733903937b6329607d1b60179184019182015283516132b48160288401602088016129d3565b01602801949350505050565b6001600160a01b03858116825284166020820152604081018390526080606082018190526000906132f3908301846129ff565b9695505050505050565b60006020828403121561330f57600080fd5b8151611fd5816129a0565b60008160001904831182151516156133345761333461308c565b500290565b6000816133485761334861308c565b506000190190565b6000828210156133625761336261308c565b500390565b634e487b7160e01b600052603160045260246000fdfe73e573f9566d61418a34d5de3ff49360f9c51fec37f7486551670290f6285daba26469706673582212201c5ded331fdeb2c605a0b02b13915b9730028f44e505d4342949e68c692d6e9064736f6c63430008090033",
  "linkReferences": {},
  "deployedLinkReferences": {}
}