{
  "_format": "hh-sol-artifact-1",
  "contractName": "ERC6551Registry",
  "sourceName": "contracts/ERC6551Registry.sol",
  "abi": [
    {
      "anonymous": false,
      "inputs": [
        {
          "indexed": false,
          "internalType": "address",
          "name": "account",
          "type": "address"
        },
        {
          "indexed": true,
          "internalType": "address",
          "name": "implementation",
          "type": "address"
        },
        {
          "indexed": false,
          "internalType": "bytes32",
          "name": "salt",
          "type": "bytes32"
        },
        {
          "indexed": false,
          "internalType": "uint256",
          "name": "chainId",
          "type": "uint256"
        },
        {
          "indexed": true,
          "internalType": "address",
          "name": "tokenContract",
          "type": "address"
        },
        {
          "indexed": true,
          "internalType": "uint256",
          "name": "tokenId",
          "type": "uint256"
        }
      ],
      "name": "ERC6551AccountCreated",
      "type": "event"
    },
    {
      "inputs": [
        {
          "internalType": "address",
          "name": "implementation",
          "type": "address"
        },
        {
          "internalType": "bytes32",
          "name": "salt",
          "type": "bytes32"
        },
        {
          "internalType": "uint256",
          "name": "chainId",
          "type": "uint256"
        },
        {
          "internalType": "address",
          "name": "tokenContract",
          "type": "address"
        },
        {
          "internalType": "uint256",
          "name": "tokenId",
          "type": "uint256"
        }
      ],
      "name": "account",
      "outputs": [
        {
          "internalType": "address",
          "name": "",
          "type": "address"
        }
      ],
      "stateMutability": "view",
      "type": "function"
    },
    {
      "inputs": [
        {
          "internalType": "address",
          "name": "implementation",
          "type": "address"
        },
        {
          "internalType": "bytes32",
          "name": "salt",
          "type": "bytes32"
        },
        {
          "internalType": "uint256",
          "name": "chainId",
          "type": "uint256"
        },
        {
          "internalType": "address",
          "name": "tokenContract",
          "type": "address"
        },
        {
          "internalType": "uint256",
          "name": "tokenId",
          "type": "uint256"
        }
      ],
      "name": "createAccount",
      "outputs": [
        {
          "internalType": "address",
          "name": "",
          "type": "address"
        }
      ],
      "stateMutability": "nonpayable",
      "type": "function"
    }
  ],
  "bytecode": "0x608060405234801561001057600080fd5b50610393806100206000396000f3fe608060405234801561001057600080fd5b50600436106100365760003560e01c8063246a00211461003b5780638a54c52f1461006a575b600080fd5b61004e61004936600461027f565b61007d565b6040516001600160a01b03909116815260200160405180910390f35b61004e61007836600461027f565b6100a4565b60008061008d878787878761019e565b90506100998187610207565b979650505050505050565b6000806100b4878787878761019e565b905060006100c28288610207565b90506001600160a01b0381163b61013e576000878351602085016000f590506001600160a01b03811661013b5760405162461bcd60e51b815260206004820152601a60248201527f455243363535313a206465706c6f796d656e74206661696c6564000000000000604482015260640160405180910390fd5b90505b604080516001600160a01b038381168252602082018a9052918101889052859180881691908b16907f79f19b3655ee38b1ce526556b7731a20c8f218fbda4a3990b6cc4172fdf887229060600160405180910390a4979650505050505050565b60408051602081018690529081018490526001600160a01b0383166060828101919091526080820183905290869060a00160408051601f19818403018152908290526101ed92916020016102cd565b604051602081830303815290604052905095945050505050565b8151602092830120604080516001600160f81b0319818601523060601b6bffffffffffffffffffffffff191660218201526035810193909352605580840192909252805180840390920182526075909201909152805191012090565b80356001600160a01b038116811461027a57600080fd5b919050565b600080600080600060a0868803121561029757600080fd5b6102a086610263565b945060208601359350604086013592506102bc60608701610263565b949793965091946080013592915050565b733d60ad80600a3d3981f3363d3d373d3d3d363d7360601b8152606083901b6bffffffffffffffffffffffff191660148201526e5af43d82803e903d91602b57fd5bf360881b60288201528151600090815b8181101561033c576020818601810151603786840101520161031f565b8181111561034e576000603783860101525b5091909101603701939250505056fea26469706673582212207ef967ce2bb8a8a1bad697282ced164385b8df9f250f6f7621e3f8f57ec31f4f64736f6c63430008090033",
  "linkReferences": {},
  "deployedLinkReferences": {}
}