{
  "_format": "hh-sol-artifact-1",
  "contractName": "JobEscrow",
  "sourceName": "contracts/JobEscrow.sol",
  "abi": [
    {
      "inputs": [
        {
          "internalType": "address",
          "name": "_forgeToken",
          "type": "address"
        },
        {
          "internalType": "address",
          "name": "_agentNFT",
          "type": "address"
        },
        {
          "internalType": "address",
          "name": "_treasury",
          "type": "address"
        }
      ],
      "stateMutability": "nonpayable",
      "type": "constructor"
    },
    {
      "anonymous": false,
      "inputs": [
        {
          "indexed": true,
          "internalType": "uint256",
          "name": "allocationId",
          "type": "uint256"
        },
        {
          "indexed": false,
          "internalType": "uint256",
          "name": "amount",
          "type": "uint256"
        }
      ],
      "name": "AllocationWithdrawn",
      "type": "event"
    },
    {
      "anonymous": false,
      "inputs": [
        {
          "indexed": true,
          "internalType": "uint256",
          "name": "allocationId",
          "type": "uint256"
        },
        {
          "indexed": true,
          "internalType": "uint256",
          "name": "agentTokenId",
          "type": "uint256"
        },
        {
          "indexed": false,
          "internalType": "address",
          "name": "allocator",
          "type": "address"
        },
        {
          "indexed": false,
          "internalType": "uint256",
          "name": "amount",
          "type": "uint256"
        }
      ],
      "name": "CapitalAllocated",
      "type": "event"
    },
    {
      "anonymous": false,
      "inputs": [
        {
          "indexed": true,
          "internalType": "uint256",
          "name": "jobId",
          "type": "uint256"
        }
      ],
      "name": "JobCancelled",
      "type": "event"
    },
    {
      "anonymous": false,
      "inputs": [
        {
          "indexed": true,
          "internalType": "uint256",
          "name": "jobId",
          "type": "uint256"
        },
        {
          "indexed": false,
          "internalType": "uint256",
          "name": "ownerPayout",
          "type": "uint256"
        },
        {
          "indexed": false,
          "internalType": "uint256",
          "name": "agentPayout",
          "type": "uint256"
        },
        {
          "indexed": false,
          "internalType": "uint256",
          "name": "platformPayout",
          "type": "uint256"
        }
      ],
      "name": "JobCompleted",
      "type": "event"
    },
    {
      "anonymous": false,
      "inputs": [
        {
          "indexed": true,
          "internalType": "uint256",
          "name": "jobId",
          "type": "uint256"
        },
        {
          "indexed": true,
          "internalType": "uint256",
          "name": "agentTokenId",
          "type": "uint256"
        },
        {
          "indexed": false,
          "internalType": "address",
          "name": "client",
          "type": "address"
        },
        {
          "indexed": false,
          "internalType": "uint256",
          "name": "amount",
          "type": "uint256"
        }
      ],
      "name": "JobCreated",
      "type": "event"
    },
    {
      "anonymous": false,
      "inputs": [
        {
          "indexed": true,
          "internalType": "uint256",
          "name": "allocationId",
          "type": "uint256"
        },
        {
          "indexed": false,
          "internalType": "uint256",
          "name": "profit",
          "type": "uint256"
        }
      ],
      "name": "ProfitDistributed",
      "type": "event"
    },
    {
      "anonymous": false,
      "inputs": [
        {
          "indexed": true,
          "internalType": "bytes32",
          "name": "role",
          "type": "bytes32"
        },
        {
          "indexed": true,
          "internalType": "bytes32",
          "name": "previousAdminRole",
          "type": "bytes32"
        },
        {
          "indexed": true,
          "internalType": "bytes32",
          "name": "newAdminRole",
          "type": "bytes32"
        }
      ],
      "name": "RoleAdminChanged",
      "type": "event"
    },
    {
      "anonymous": false,
      "inputs": [
        {
          "indexed": true,
          "internalType": "bytes32",
          "name": "role",
          "type": "bytes32"
        },
        {
          "indexed": true,
          "internalType": "address",
          "name": "account",
          "type": "address"
        },
        {
          "indexed": true,
          "internalType": "address",
          "name": "sender",
          "type": "address"
        }
      ],
      "name": "RoleGranted",
      "type": "event"
    },
    {
      "anonymous": false,
      "inputs": [
        {
          "indexed": true,
          "internalType": "bytes32",
          "name": "role",
          "type": "bytes32"
        },
        {
          "indexed": true,
          "internalType": "address",
          "name": "account",
          "type": "address"
        },
        {
          "indexed": true,
          "internalType": "address",
          "name": "sender",
          "type": "address"
        }
      ],
      "name": "RoleRevoked",
      "type": "event"
    },
    {
      "inputs": [],
      "name": "DEFAULT_ADMIN_ROLE",
      "outputs": [
        {
          "internalType": "bytes32",
          "name": "",
          "type": "bytes32"
        }
      ],
      "stateMutability": "view",
      "type": "function"
    },
    {
      "inputs": [],
      "name": "PLATFORM_ROLE",
      "outputs": [
        {
          "internalType": "bytes32",
          "name": "",
          "type": "bytes32"
        }
      ],
      "stateMutability": "view",
      "type": "function"
    },
    {
      "inputs": [
        {
          "internalType": "uint256",
          "name": "",
          "type": "uint256"
        },
        {
          "internalType": "uint256",
          "name": "",
          "type": "uint256"
        }
      ],
      "name": "agentAllocations",
      "outputs": [
        {
          "internalType": "uint256",
          "name": "",
          "type": "uint256"
        }
      ],
      "stateMutability": "view",
      "type": "function"
    },
    {
      "inputs": [
        {
          "internalType": "uint256",
          "name": "",
          "type": "uint256"
        },
        {
          "internalType": "uint256",
          "name": "",
          "type": "uint256"
        }
      ],
      "name": "agentJobs",
      "outputs": [
        {
          "internalType": "uint256",
          "name": "",
          "type": "uint256"
        }
      ],
      "stateMutability": "view",
      "type": "function"
    },
    {
      "inputs": [],
      "name": "agentNFT",
      "outputs": [
        {
          "internalType": "address",
          "name": "",
          "type": "address"
        }
      ],
      "stateMutability": "view",
      "type": "function"
    },
    {
      "inputs": [],
      "name": "agentShareBps",
      "outputs": [
        {
          "internalType": "uint256",
          "name": "",
          "type": "uint256"
        }
      ],
      "stateMutability": "view",
      "type": "function"
    },
    {
      "inputs": [
        {
          "internalType": "uint256",
          "name": "agentTokenId",
          "type": "uint256"
        },
        {
          "internalType": "uint256",
          "name": "amount",
          "type": "uint256"
        }
      ],
      "name": "allocateCapital",
      "outputs": [
        {
          "internalType": "uint256",
          "name": "",
          "type": "uint256"
        }
      ],
      "stateMutability": "nonpayable",
      "type": "function"
    },
    {
      "inputs": [
        {
          "internalType": "uint256",
          "name": "",
          "type": "uint256"
        }
      ],
      "name": "allocations",
      "outputs": [
        {
          "internalType": "uint256",
          "name": "allocationId",
          "type": "uint256"
        },
        {
          "internalType": "uint256",
          "name": "agentTokenId",
          "type": "uint256"
        },
        {
          "internalType": "address",
          "name": "allocator",
          "type": "address"
        },
        {
          "internalType": "uint256",
          "name": "amount",
          "type": "uint256"
        },
        {
          "internalType": "uint256",
          "name": "profit",
          "type": "uint256"
        },
        {
          "internalType": "bool",
          "name": "active",
          "type": "bool"
        },
        {
          "internalType": "uint256",
          "name": "createdAt",
          "type": "uint256"
        }
      ],
      "stateMutability": "view",
      "type": "function"
    },
    {
      "inputs": [
        {
          "internalType": "uint256",
          "name": "jobId",
          "type": "uint256"
        }
      ],
      "name": "cancelJob",
      "outputs": [],
      "stateMutability": "nonpayable",
      "type": "function"
    },
    {
      "inputs": [
        {
          "internalType": "uint256",
          "name": "jobId",
          "type": "uint256"
        }
      ],
      "name": "completeJob",
      "outputs": [],
      "stateMutability": "nonpayable",
      "type": "function"
    },
    {
      "inputs": [
        {
          "internalType": "uint256",
          "name": "agentTokenId",
          "type": "uint256"
        },
        {
          "internalType": "address",
          "name": "agentOwner",
          "type": "address"
        },
        {
          "internalType": "address",
          "name": "agentTBAWallet",
          "type": "address"
        },
        {
          "internalType": "uint256",
          "name": "amount",
          "type": "uint256"
        }
      ],
      "name": "createJob",
      "outputs": [
        {
          "internalType": "uint256",
          "name": "",
          "type": "uint256"
        }
      ],
      "stateMutability": "nonpayable",
      "type": "function"
    },
    {
      "inputs": [],
      "name": "forgeToken",
      "outputs": [
        {
          "internalType": "contract IERC20",
          "name": "",
          "type": "address"
        }
      ],
      "stateMutability": "view",
      "type": "function"
    },
    {
      "inputs": [
        {
          "internalType": "uint256",
          "name": "agentTokenId",
          "type": "uint256"
        }
      ],
      "name": "getAllocationsByAgent",
      "outputs": [
        {
          "internalType": "uint256[]",
          "name": "",
          "type": "uint256[]"
        }
      ],
      "stateMutability": "view",
      "type": "function"
    },
    {
      "inputs": [
        {
          "internalType": "address",
          "name": "user",
          "type": "address"
        }
      ],
      "name": "getAllocationsByUser",
      "outputs": [
        {
          "internalType": "uint256[]",
          "name": "",
          "type": "uint256[]"
        }
      ],
      "stateMutability": "view",
      "type": "function"
    },
    {
      "inputs": [
        {
          "internalType": "uint256",
          "name": "agentTokenId",
          "type": "uint256"
        }
      ],
      "name": "getJobsByAgent",
      "outputs": [
        {
          "internalType": "uint256[]",
          "name": "",
          "type": "uint256[]"
        }
      ],
      "stateMutability": "view",
      "type": "function"
    },
    {
      "inputs": [
        {
          "internalType": "bytes32",
          "name": "role",
          "type": "bytes32"
        }
      ],
      "name": "getRoleAdmin",
      "outputs": [
        {
          "internalType": "bytes32",
          "name": "",
          "type": "bytes32"
        }
      ],
      "stateMutability": "view",
      "type": "function"
    },
    {
      "inputs": [
        {
          "internalType": "bytes32",
          "name": "role",
          "type": "bytes32"
        },
        {
          "internalType": "address",
          "name": "account",
          "type": "address"
        }
      ],
      "name": "grantRole",
      "outputs": [],
      "stateMutability": "nonpayable",
      "type": "function"
    },
    {
      "inputs": [
        {
          "internalType": "bytes32",
          "name": "role",
          "type": "bytes32"
        },
        {
          "internalType": "address",
          "name": "account",
          "type": "address"
        }
      ],
      "name": "hasRole",
      "outputs": [
        {
          "internalType": "bool",
          "name": "",
          "type": "bool"
        }
      ],
      "stateMutability": "view",
      "type": "function"
    },
    {
      "inputs": [
        {
          "internalType": "uint256",
          "name": "",
          "type": "uint256"
        }
      ],
      "name": "jobs",
      "outputs": [
        {
          "internalType": "uint256",
          "name": "jobId",
          "type": "uint256"
        },
        {
          "internalType": "uint256",
          "name": "agentTokenId",
          "type": "uint256"
        },
        {
          "internalType": "address",
          "name": "client",
          "type": "address"
        },
        {
          "internalType": "address",
          "name": "agentOwner",
          "type": "address"
        },
        {
          "internalType": "address",
          "name": "agentTBAWallet",
          "type": "address"
        },
        {
          "internalType": "uint256",
          "name": "amount",
          "type": "uint256"
        },
        {
          "internalType": "enum JobEscrow.JobStatus",
          "name": "status",
          "type": "uint8"
        },
        {
          "internalType": "uint256",
          "name": "createdAt",
          "type": "uint256"
        },
        {
          "internalType": "uint256",
          "name": "completedAt",
          "type": "uint256"
        }
      ],
      "stateMutability": "view",
      "type": "function"
    },
    {
      "inputs": [],
      "name": "nextAllocationId",
      "outputs": [
        {
          "internalType": "uint256",
          "name": "",
          "type": "uint256"
        }
      ],
      "stateMutability": "view",
      "type": "function"
    },
    {
      "inputs": [],
      "name": "nextJobId",
      "outputs": [
        {
          "internalType": "uint256",
          "name": "",
          "type": "uint256"
        }
      ],
      "stateMutability": "view",
      "type": "function"
    },
    {
      "inputs": [],
      "name": "ownerShareBps",
      "outputs": [
        {
          "internalType": "uint256",
          "name": "",
          "type": "uint256"
        }
      ],
      "stateMutability": "view",
      "type": "function"
    },
    {
      "inputs": [],
      "name": "performanceFeeBps",
      "outputs": [
        {
          "internalType": "uint256",
          "name": "",
          "type": "uint256"
        }
      ],
      "stateMutability": "view",
      "type": "function"
    },
    {
      "inputs": [],
      "name": "platformShareBps",
      "outputs": [
        {
          "internalType": "uint256",
          "name": "",
          "type": "uint256"
        }
      ],
      "stateMutability": "view",
      "type": "function"
    },
    {
      "inputs": [
        {
          "internalType": "uint256",
          "name": "allocationId",
          "type": "uint256"
        },
        {
          "internalType": "uint256",
          "name": "profitAmount",
          "type": "uint256"
        }
      ],
      "name": "recordProfit",
      "outputs": [],
      "stateMutability": "nonpayable",
      "type": "function"
    },
    {
      "inputs": [
        {
          "internalType": "bytes32",
          "name": "role",
          "type": "bytes32"
        },
        {
          "internalType": "address",
          "name": "account",
          "type": "address"
        }
      ],
      "name": "renounceRole",
      "outputs": [],
      "stateMutability": "nonpayable",
      "type": "function"
    },
    {
      "inputs": [
        {
          "internalType": "bytes32",
          "name": "role",
          "type": "bytes32"
        },
        {
          "internalType": "address",
          "name": "account",
          "type": "address"
        }
      ],
      "name": "revokeRole",
      "outputs": [],
      "stateMutability": "nonpayable",
      "type": "function"
    },
    {
      "inputs": [
        {
          "internalType": "bytes4",
          "name": "interfaceId",
          "type": "bytes4"
        }
      ],
      "name": "supportsInterface",
      "outputs": [
        {
          "internalType": "bool",
          "name": "",
          "type": "bool"
        }
      ],
      "stateMutability": "view",
      "type": "function"
    },
    {
      "inputs": [],
      "name": "treasury",
      "outputs": [
        {
          "internalType": "address",
          "name": "",
          "type": "address"
        }
      ],
      "stateMutability": "view",
      "type": "function"
    },
    {
      "inputs": [
        {
          "internalType": "uint256",
          "name": "_ownerBps",
          "type": "uint256"
        },
        {
          "internalType": "uint256",
          "name": "_agentBps",
          "type": "uint256"
        },
        {
          "internalType": "uint256",
          "name": "_platformBps",
          "type": "uint256"
        }
      ],
      "name": "updateFeeStructure",
      "outputs": [],
      "stateMutability": "nonpayable",
      "type": "function"
    },
    {
      "inputs": [
        {
          "internalType": "address",
          "name": "",
          "type": "address"
        },
        {
          "internalType": "uint256",
          "name": "",
          "type": "uint256"
        }
      ],
      "name": "userAllocations",
      "outputs": [
        {
          "internalType": "uint256",
          "name": "",
          "type": "uint256"
        }
      ],
      "stateMutability": "view",
      "type": "function"
    },
    {
      "inputs": [
        {
          "internalType": "uint256",
          "name": "allocationId",
          "type": "uint256"
        }
      ],
      "name": "withdrawAllocation",
      "outputs": [],
      "stateMutability": "nonpayable",
      "type": "function"
    }
  ],
  "bytecode": "0x6080604052611b586005556107d06006556103e86007556105dc60085560016009556001600a553480156200003357600080fd5b506040516200205038038062002050833981016040819052620000569162000262565b60016000556001600160a01b038316620000a75760405162461bcd60e51b815260206004820152600d60248201526c24b73b30b634b2103a37b5b2b760991b60448201526064015b60405180910390fd5b6001600160a01b038216620000f25760405162461bcd60e51b815260206004820152601060248201526f125b9d985b1a59081059d95b9d13919560821b60448201526064016200009e565b6001600160a01b0381166200013d5760405162461bcd60e51b815260206004820152601060248201526f496e76616c696420747265617375727960801b60448201526064016200009e565b600280546001600160a01b038086166001600160a01b03199283161790925560038054858416908316179055600480549284169290911691909117905562000187600033620001bc565b620001b37f797343f8d6a29aafeb3aaf0910a8973e0081c60c2f6c1f775cd9f76ea348fc1e33620001bc565b505050620002ac565b60008281526001602090815260408083206001600160a01b038516845290915290205460ff16620002415760008281526001602081815260408084206001600160a01b0386168086529252808420805460ff19169093179092559051339285917f2f8788117e7eff1d82e926ec794901d17c78024a50270940304540a733656f0d9190a45b5050565b80516001600160a01b03811681146200025d57600080fd5b919050565b6000806000606084860312156200027857600080fd5b620002838462000245565b9250620002936020850162000245565b9150620002a36040850162000245565b90509250925092565b611d9480620002bc6000396000f3fe608060405234801561001057600080fd5b50600436106101f05760003560e01c80637bbe5edf1161010f578063b2a592e8116100a2578063cfde2d6b11610071578063cfde2d6b1461051e578063d547741f14610531578063e430d81514610544578063fab5d0561461054d57600080fd5b8063b2a592e8146104dc578063b59b39fe146104ef578063b9d4e87914610502578063bb9ed1b11461050b57600080fd5b8063970dc6a7116100de578063970dc6a7146104a5578063a1c0d32f146104b8578063a217fddf146104cb578063b0c2aa5e146104d357600080fd5b80637bbe5edf1461046d57806381feeac31461047657806391d1485414610489578063947140651461049c57600080fd5b80632f2ff15d116101875780635b1bc79c116101565780635b1bc79c1461041f57806361d027b31461043257806370824c5c14610445578063778215751461045a57600080fd5b80632f2ff15d146103c557806333022a98146103d857806336568abe146103e15780633fd773e9146103f457600080fd5b8063180aedf3116101c3578063180aedf3146102ec5780631dffa3dc1461036c578063248a9ca3146103815780632a0e3a74146103a557600080fd5b806301ffc9a7146101f55780630a2642bf1461021d5780630edf9f6f146102b85780630fb9783c146102d9575b600080fd5b61020861020336600461194b565b610560565b60405190151581526020015b60405180910390f35b61027561022b366004611975565b600c602052600090815260409020805460018201546002830154600384015460048501546005860154600690960154949593946001600160a01b03909316939192909160ff169087565b6040805197885260208801969096526001600160a01b03909416948601949094526060850191909152608084015290151560a083015260c082015260e001610214565b6102cb6102c636600461198e565b610597565b604051908152602001610214565b6102cb6102e736600461198e565b6107e8565b6103576102fa366004611975565b600b60205260009081526040902080546001820154600283015460038401546004850154600586015460068701546007880154600890980154969795966001600160a01b03958616969486169590931693919260ff909116919089565b604051610214999897969594939291906119c6565b61037f61037a366004611975565b610819565b005b6102cb61038f366004611975565b6000908152600160208190526040909120015490565b6103b86103b3366004611975565b6109cc565b6040516102149190611a3a565b61037f6103d3366004611a9a565b610a2e565b6102cb60055481565b61037f6103ef366004611a9a565b610a59565b600354610407906001600160a01b031681565b6040516001600160a01b039091168152602001610214565b6102cb61042d366004611ac6565b610ad7565b600454610407906001600160a01b031681565b6102cb600080516020611d3f83398151915281565b6103b8610468366004611af0565b610af3565b6102cb60065481565b6102cb61048436600461198e565b610b5d565b610208610497366004611a9a565b610b79565b6102cb60075481565b6102cb6104b3366004611b0b565b610ba4565b61037f6104c6366004611975565b610ede565b6102cb600081565b6102cb60095481565b61037f6104ea366004611b4f565b6111d8565b61037f6104fd36600461198e565b611249565b6102cb60085481565b600254610407906001600160a01b031681565b61037f61052c366004611975565b61131c565b61037f61053f366004611a9a565b611581565b6102cb600a5481565b6103b861055b366004611975565b6115a7565b60006001600160e01b03198216637965db0b60e01b148061059157506301ffc9a760e01b6001600160e01b03198316145b92915050565b60006105a1611607565b600082116105eb5760405162461bcd60e51b81526020600482015260126024820152710416d6f756e74206d757374206265203e20360741b60448201526064015b60405180910390fd5b6002546040516323b872dd60e01b8152336004820152306024820152604481018490526001600160a01b03909116906323b872dd90606401602060405180830381600087803b15801561063d57600080fd5b505af1158015610651573d6000803e3d6000fd5b505050506040513d601f19601f820116820180604052508101906106759190611b7b565b6106b35760405162461bcd60e51b815260206004820152600f60248201526e151c985b9cd9995c8819985a5b1959608a1b60448201526064016105e2565b600a80549060019060006106c78385611bb3565b90915550506040805160e08101825282815260208082018781523383850181815260608501898152600060808701818152600160a089018181524260c08b019081528c8552600c8a528b85209a518b5597518a830155945160028a0180546001600160a01b0319166001600160a01b0390921691909117905592516003890155516004880155915160058701805460ff19169115159190911790559251600690950194909455888452600e83528484208054808401825590855283852001869055808452600f8352848420805492830181558452928290200184905582519182528101859052859183917f22ba4eeb960be8be7809d152838ccbb2a3b213e87141ada2e7280bb85e35b740910160405180910390a390506105916001600055565b600d602052816000526040600020818154811061080457600080fd5b90600052602060002001600091509150505481565b610821611607565b6000818152600b6020526040812090600682015460ff166002811115610849576108496119b0565b146108875760405162461bcd60e51b815260206004820152600e60248201526d4a6f62206e6f742061637469766560901b60448201526064016105e2565b60028101546001600160a01b03163314806108b557506108b5600080516020611d3f83398151915233610b79565b6108f25760405162461bcd60e51b815260206004820152600e60248201526d139bdd08185d5d1a1bdc9a5e995960921b60448201526064016105e2565b60068101805460ff19166002908117909155805490820154600583015460405163a9059cbb60e01b81526001600160a01b039283166004820152602481019190915291169063a9059cbb90604401602060405180830381600087803b15801561095a57600080fd5b505af115801561096e573d6000803e3d6000fd5b505050506040513d601f19601f820116820180604052508101906109929190611b7b565b5060405182907f58243f872c550ad02802199ade99eb4250f6bb19e9abbf2d3de7b969c0eb5e4f90600090a2506109c96001600055565b50565b6000818152600e6020908152604091829020805483518184028101840190945280845260609392830182828015610a2257602002820191906000526020600020905b815481526020019060010190808311610a0e575b50505050509050919050565b60008281526001602081905260409091200154610a4a81611661565b610a54838361166b565b505050565b6001600160a01b0381163314610ac95760405162461bcd60e51b815260206004820152602f60248201527f416363657373436f6e74726f6c3a2063616e206f6e6c792072656e6f756e636560448201526e103937b632b9903337b91039b2b63360891b60648201526084016105e2565b610ad382826116d6565b5050565b600f602052816000526040600020818154811061080457600080fd5b6001600160a01b0381166000908152600f6020908152604091829020805483518184028101840190945280845260609392830182828015610a225760200282019190600052602060002090815481526020019060010190808311610a0e5750505050509050919050565b600e602052816000526040600020818154811061080457600080fd5b60009182526001602090815260408084206001600160a01b0393909316845291905290205460ff1690565b6000610bae611607565b60008211610bf35760405162461bcd60e51b81526020600482015260126024820152710416d6f756e74206d757374206265203e20360741b60448201526064016105e2565b6001600160a01b038416610c3f5760405162461bcd60e51b815260206004820152601360248201527224b73b30b634b21030b3b2b73a1037bbb732b960691b60448201526064016105e2565b6001600160a01b038316610c8a5760405162461bcd60e51b8152602060048201526012602482015271125b9d985b1a5908151090481dd85b1b195d60721b60448201526064016105e2565b6002546040516323b872dd60e01b8152336004820152306024820152604481018490526001600160a01b03909116906323b872dd90606401602060405180830381600087803b158015610cdc57600080fd5b505af1158015610cf0573d6000803e3d6000fd5b505050506040513d601f19601f82011682018060405250810190610d149190611b7b565b610d525760405162461bcd60e51b815260206004820152600f60248201526e151c985b9cd9995c8819985a5b1959608a1b60448201526064016105e2565b60098054906001906000610d668385611bb3565b909155505060408051610120810182528281526020808201898152338385019081526001600160a01b038a8116606086019081528a82166080870190815260a087018b8152600060c089018181524260e08b01526101008a018290528b8252600b909852989098208751815594516001808701919091559351600280870180549286166001600160a01b03199384161790559251600387018054918616918316919091179055905160048601805491909416911617909155945160058301559151600682018054949592949193909260ff1992909216918490811115610e4e57610e4e6119b0565b021790555060e08201516007820155610100909101516008909101556000868152600d602090815260408083208054600181018255908452928290209092018390558151338152908101859052879183917fb4dbfe83b7f321ff8fdbe06a93ca19692acfc18986cc87cb8f7623a4742a7efe910160405180910390a39050610ed66001600055565b949350505050565b600080516020611d3f833981519152610ef681611661565b610efe611607565b6000828152600b6020526040812090600682015460ff166002811115610f2657610f266119b0565b14610f645760405162461bcd60e51b815260206004820152600e60248201526d4a6f62206e6f742061637469766560901b60448201526064016105e2565b60068101805460ff19166001179055426008820155600580549082015460009161271091610f929190611bcb565b610f9c9190611bea565b905060006127106006548460050154610fb59190611bcb565b610fbf9190611bea565b9050600081838560050154610fd49190611c0c565b610fde9190611c0c565b600254600386015460405163a9059cbb60e01b81526001600160a01b03918216600482015260248101879052929350169063a9059cbb90604401602060405180830381600087803b15801561103257600080fd5b505af1158015611046573d6000803e3d6000fd5b505050506040513d601f19601f8201168201806040525081019061106a9190611b7b565b5060025460048581015460405163a9059cbb60e01b81526001600160a01b0391821692810192909252602482018590529091169063a9059cbb90604401602060405180830381600087803b1580156110c157600080fd5b505af11580156110d5573d6000803e3d6000fd5b505050506040513d601f19601f820116820180604052508101906110f99190611b7b565b506002546004805460405163a9059cbb60e01b81526001600160a01b0391821692810192909252602482018490529091169063a9059cbb90604401602060405180830381600087803b15801561114e57600080fd5b505af1158015611162573d6000803e3d6000fd5b505050506040513d601f19601f820116820180604052508101906111869190611b7b565b50604080518481526020810184905290810182905286907f3ae066f671d4e2a5f79bc0f00a2d8b721205102f3ab39495bb3e154f35064eb69060600160405180910390a250505050610ad36001600055565b60006111e381611661565b816111ee8486611bb3565b6111f89190611bb3565b6127101461123a5760405162461bcd60e51b815260206004820152600f60248201526e4d75737420746f74616c203130302560881b60448201526064016105e2565b50600592909255600655600755565b600080516020611d3f83398151915261126181611661565b611269611607565b6000838152600c60205260409020600581015460ff166112c35760405162461bcd60e51b8152602060048201526015602482015274416c6c6f636174696f6e206e6f742061637469766560581b60448201526064016105e2565b828160040160008282546112d79190611bb3565b909155505060405183815284907f5fa156a16c825edd8ad1c2bd96f4bc48d9844e12f14d69d8b4a9e72ffb62e8eb9060200160405180910390a250610a546001600055565b611324611607565b6000818152600c6020526040902060028101546001600160a01b031633146113845760405162461bcd60e51b81526020600482015260136024820152722737ba103cb7bab91030b63637b1b0ba34b7b760691b60448201526064016105e2565b600581015460ff166113cc5760405162461bcd60e51b815260206004820152601160248201527020b63932b0b23c903bb4ba34323930bbb760791b60448201526064016105e2565b60058101805460ff19169055600481015460038201546000916113ee91611bb3565b9050600061271060085484600401546114079190611bcb565b6114119190611bea565b9050600061141f8284611c0c565b60025460405163a9059cbb60e01b8152336004820152602481018390529192506001600160a01b03169063a9059cbb90604401602060405180830381600087803b15801561146c57600080fd5b505af1158015611480573d6000803e3d6000fd5b505050506040513d601f19601f820116820180604052508101906114a49190611b7b565b508115611539576002546004805460405163a9059cbb60e01b81526001600160a01b0391821692810192909252602482018590529091169063a9059cbb90604401602060405180830381600087803b1580156114ff57600080fd5b505af1158015611513573d6000803e3d6000fd5b505050506040513d601f19601f820116820180604052508101906115379190611b7b565b505b847f30205cdeb018382b91d1d2ab3a74b33e9dc5d3eb90adf5797871289a2a78485e8260405161156b91815260200190565b60405180910390a2505050506109c96001600055565b6000828152600160208190526040909120015461159d81611661565b610a5483836116d6565b6000818152600d6020908152604091829020805483518184028101840190945280845260609392830182828015610a225760200282019190600052602060002090815481526020019060010190808311610a0e5750505050509050919050565b6002600054141561165a5760405162461bcd60e51b815260206004820152601f60248201527f5265656e7472616e637947756172643a207265656e7472616e742063616c6c0060448201526064016105e2565b6002600055565b6109c9813361173d565b6116758282610b79565b610ad35760008281526001602081815260408084206001600160a01b0386168086529252808420805460ff19169093179092559051339285917f2f8788117e7eff1d82e926ec794901d17c78024a50270940304540a733656f0d9190a45050565b6116e08282610b79565b15610ad35760008281526001602090815260408083206001600160a01b0385168085529252808320805460ff1916905551339285917ff6391f5c32d9c69d2a47ea670b442974b53935d1edc7fd64eb21e047a839171b9190a45050565b6117478282610b79565b610ad35761175481611796565b61175f8360206117a8565b604051602001611770929190611c53565b60408051601f198184030181529082905262461bcd60e51b82526105e291600401611cc8565b60606105916001600160a01b03831660145b606060006117b7836002611bcb565b6117c2906002611bb3565b67ffffffffffffffff8111156117da576117da611cfb565b6040519080825280601f01601f191660200182016040528015611804576020820181803683370190505b509050600360fc1b8160008151811061181f5761181f611d11565b60200101906001600160f81b031916908160001a905350600f60fb1b8160018151811061184e5761184e611d11565b60200101906001600160f81b031916908160001a9053506000611872846002611bcb565b61187d906001611bb3565b90505b60018111156118f5576f181899199a1a9b1b9c1cb0b131b232b360811b85600f16601081106118b1576118b1611d11565b1a60f81b8282815181106118c7576118c7611d11565b60200101906001600160f81b031916908160001a90535060049490941c936118ee81611d27565b9050611880565b5083156119445760405162461bcd60e51b815260206004820181905260248201527f537472696e67733a20686578206c656e67746820696e73756666696369656e7460448201526064016105e2565b9392505050565b60006020828403121561195d57600080fd5b81356001600160e01b03198116811461194457600080fd5b60006020828403121561198757600080fd5b5035919050565b600080604083850312156119a157600080fd5b50508035926020909101359150565b634e487b7160e01b600052602160045260246000fd5b898152602081018990526001600160a01b03888116604083015287811660608301528616608082015260a08101859052610120810160038510611a1957634e487b7160e01b600052602160045260246000fd5b8460c08301528360e0830152826101008301529a9950505050505050505050565b6020808252825182820181905260009190848201906040850190845b81811015611a7257835183529284019291840191600101611a56565b50909695505050505050565b80356001600160a01b0381168114611a9557600080fd5b919050565b60008060408385031215611aad57600080fd5b82359150611abd60208401611a7e565b90509250929050565b60008060408385031215611ad957600080fd5b611ae283611a7e565b946020939093013593505050565b600060208284031215611b0257600080fd5b61194482611a7e565b60008060008060808587031215611b2157600080fd5b84359350611b3160208601611a7e565b9250611b3f60408601611a7e565b9396929550929360600135925050565b600080600060608486031215611b6457600080fd5b505081359360208301359350604090920135919050565b600060208284031215611b8d57600080fd5b8151801515811461194457600080fd5b634e487b7160e01b600052601160045260246000fd5b60008219821115611bc657611bc6611b9d565b500190565b6000816000190483118215151615611be557611be5611b9d565b500290565b600082611c0757634e487b7160e01b600052601260045260246000fd5b500490565b600082821015611c1e57611c1e611b9d565b500390565b60005b83811015611c3e578181015183820152602001611c26565b83811115611c4d576000848401525b50505050565b7f416363657373436f6e74726f6c3a206163636f756e7420000000000000000000815260008351611c8b816017850160208801611c23565b7001034b99036b4b9b9b4b733903937b6329607d1b6017918401918201528351611cbc816028840160208801611c23565b01602801949350505050565b6020815260008251806020840152611ce7816040850160208701611c23565b601f01601f19169190910160400192915050565b634e487b7160e01b600052604160045260246000fd5b634e487b7160e01b600052603260045260246000fd5b600081611d3657611d36611b9d565b50600019019056fe797343f8d6a29aafeb3aaf0910a8973e0081c60c2f6c1f775cd9f76ea348fc1ea26469706673582212202555ceceaf5f69df82fa985048c4da1cb2c30828fac01d2ca823049865b0fa2c64736f6c63430008090033",
  "linkReferences": {},
  "deployedLinkReferences": {}
}